{
  "contractName": "Consts",
  "abi": [
    {
      "constant": true,
      "inputs": [],
      "name": "CONTINUE_MINTING",
      "outputs": [
        {
          "name": "",
          "type": "bool"
        }
      ],
      "payable": false,
      "stateMutability": "view",
      "type": "function"
    },
    {
      "constant": true,
      "inputs": [],
      "name": "TOKEN_NAME",
      "outputs": [
        {
          "name": "",
          "type": "string"
        }
      ],
      "payable": false,
      "stateMutability": "view",
      "type": "function"
    },
    {
      "constant": true,
      "inputs": [],
      "name": "TOKEN_SYMBOL",
      "outputs": [
        {
          "name": "",
          "type": "string"
        }
      ],
      "payable": false,
      "stateMutability": "view",
      "type": "function"
    },
    {
      "constant": true,
      "inputs": [],
      "name": "TOKEN_DECIMAL_MULTIPLIER",
      "outputs": [
        {
          "name": "",
          "type": "uint256"
        }
      ],
      "payable": false,
      "stateMutability": "view",
      "type": "function"
    },
    {
      "constant": true,
      "inputs": [],
      "name": "TOKEN_DECIMALS",
      "outputs": [
        {
          "name": "",
          "type": "uint256"
        }
      ],
      "payable": false,
      "stateMutability": "view",
      "type": "function"
    },
    {
      "constant": true,
      "inputs": [],
      "name": "TARGET_USER",
      "outputs": [
        {
          "name": "",
          "type": "address"
        }
      ],
      "payable": false,
      "stateMutability": "view",
      "type": "function"
    },
    {
      "constant": true,
      "inputs": [],
      "name": "PAUSED",
      "outputs": [
        {
          "name": "",
          "type": "bool"
        }
      ],
      "payable": false,
      "stateMutability": "view",
      "type": "function"
    },
    {
      "constant": true,
      "inputs": [],
      "name": "TOKEN_DECIMALS_UINT8",
      "outputs": [
        {
          "name": "",
          "type": "uint8"
        }
      ],
      "payable": false,
      "stateMutability": "view",
      "type": "function"
    }
  ],
  "bytecode": "0x608060405234801561001057600080fd5b506102d9806100206000396000f30060806040526004361061008c5763ffffffff7c01000000000000000000000000000000000000000000000000000000006000350416623fd35a811461009157806318821400146100ba5780632a9053181461014457806356780085146101595780635b7f415c14610180578063726a431a14610195578063a9aad58c146101d3578063cf3b1967146101e8575b600080fd5b34801561009d57600080fd5b506100a6610213565b604080519115158252519081900360200190f35b3480156100c657600080fd5b506100cf610218565b6040805160208082528351818301528351919283929083019185019080838360005b838110156101095781810151838201526020016100f1565b50505050905090810190601f1680156101365780820380516001836020036101000a031916815260200191505b509250505060405180910390f35b34801561015057600080fd5b506100cf61024f565b34801561016557600080fd5b5061016e610286565b60408051918252519081900360200190f35b34801561018c57600080fd5b5061016e61028b565b3480156101a157600080fd5b506101aa610290565b6040805173ffffffffffffffffffffffffffffffffffffffff9092168252519081900360200190f35b3480156101df57600080fd5b506100a66102a8565b3480156101f457600080fd5b506101fd61028b565b6040805160ff9092168252519081900360200190f35b600181565b60408051808201909152600981527f4e61697261436f696e0000000000000000000000000000000000000000000000602082015281565b60408051808201909152600481527f4e474e4300000000000000000000000000000000000000000000000000000000602082015281565b606481565b600281565b73548afc866adce12a5e76e58d208195ba0b3de08481565b6000815600a165627a7a7230582073c5e0b88b19cdc29cbfb4e48e1c0ca5e824b652e801d725d328c66154e683e70029",
  "source": "pragma solidity ^0.4.23;\n\n\ncontract Consts {\n    uint public constant TOKEN_DECIMALS = 2;\n    uint8 public constant TOKEN_DECIMALS_UINT8 = 2;\n    uint public constant TOKEN_DECIMAL_MULTIPLIER = 10 ** TOKEN_DECIMALS;\n\n    string public constant TOKEN_NAME = \"NairaCoin\";\n    string public constant TOKEN_SYMBOL = \"NGNC\";\n    bool public constant PAUSED = false;\n    address public constant TARGET_USER = 0x548aFC866aDCe12a5E76E58D208195ba0b3De084;\n    \n    bool public constant CONTINUE_MINTING = true;\n}\n\n\n",
  "sourcePath": "/var/www/lastwill/temp/3c747d54-6182-43e5-8270-37730aa0099f/contracts/Consts.sol",
  "compiler": {
    "name": "solc",
    "version": "0.4.24+commit.e67f0147.Emscripten.clang"
  },
  "schemaVersion": "2.0.1",
  "updatedAt": "2019-01-13T19:26:08.309Z"
}