{
  "contractName": "FailingERC223Receiver",
  "abi": [
    {
      "constant": false,
      "inputs": [
        {
          "name": "",
          "type": "address"
        },
        {
          "name": "",
          "type": "uint256"
        },
        {
          "name": "",
          "type": "bytes"
        }
      ],
      "name": "tokenFallback",
      "outputs": [],
      "payable": false,
      "stateMutability": "nonpayable",
      "type": "function"
    }
  ],
  "bytecode": "0x608060405234801561001057600080fd5b5060e48061001f6000396000f300608060405260043610603e5763ffffffff7c0100000000000000000000000000000000000000000000000000000000600035041663c0ee0b8a81146043575b600080fd5b348015604e57600080fd5b50604080516020600460443581810135601f810184900484028501840190955284845260b694823573ffffffffffffffffffffffffffffffffffffffff16946024803595369594606494920191908190840183828082843750949750603e9650505050505050565b0000a165627a7a72305820c87056eda77c285eb501129a5862382bee1da2793e27c4f73abc117f3c0e30bb0029",
  "source": "pragma solidity ^0.4.23;\n\nimport \"sc-library/contracts/ERC223/ERC223Receiver.sol\";\n\n\ncontract SuccessfulERC223Receiver is ERC223Receiver {\n    event Invoked(address from, uint value, bytes data);\n\n    function tokenFallback(address _from, uint _value, bytes _data) public {\n        emit Invoked(_from, _value, _data);\n    }\n}\n\n\ncontract FailingERC223Receiver is ERC223Receiver {\n    function tokenFallback(address, uint, bytes) public {\n        revert();\n    }\n}\n\n\ncontract ERC223ReceiverWithoutTokenFallback {\n}\n",
  "sourcePath": "/var/www/lastwill/temp/3c747d54-6182-43e5-8270-37730aa0099f/contracts/ERC223ReceiverImpl.sol",
  "compiler": {
    "name": "solc",
    "version": "0.4.24+commit.e67f0147.Emscripten.clang"
  },
  "schemaVersion": "2.0.1",
  "updatedAt": "2019-01-13T19:26:08.310Z"
}