{
  "contractName": "FreezableMintableToken",
  "abi": [
    {
      "constant": true,
      "inputs": [
        {
          "name": "_addr",
          "type": "address"
        },
        {
          "name": "_index",
          "type": "uint256"
        }
      ],
      "name": "getFreezing",
      "outputs": [
        {
          "name": "_release",
          "type": "uint64"
        },
        {
          "name": "_balance",
          "type": "uint256"
        }
      ],
      "payable": false,
      "stateMutability": "view",
      "type": "function"
    },
    {
      "constant": true,
      "inputs": [],
      "name": "mintingFinished",
      "outputs": [
        {
          "name": "",
          "type": "bool"
        }
      ],
      "payable": false,
      "stateMutability": "view",
      "type": "function"
    },
    {
      "constant": false,
      "inputs": [
        {
          "name": "_spender",
          "type": "address"
        },
        {
          "name": "_value",
          "type": "uint256"
        }
      ],
      "name": "approve",
      "outputs": [
        {
          "name": "",
          "type": "bool"
        }
      ],
      "payable": false,
      "stateMutability": "nonpayable",
      "type": "function"
    },
    {
      "constant": true,
      "inputs": [
        {
          "name": "_owner",
          "type": "address"
        }
      ],
      "name": "actualBalanceOf",
      "outputs": [
        {
          "name": "balance",
          "type": "uint256"
        }
      ],
      "payable": false,
      "stateMutability": "view",
      "type": "function"
    },
    {
      "constant": true,
      "inputs": [],
      "name": "totalSupply",
      "outputs": [
        {
          "name": "",
          "type": "uint256"
        }
      ],
      "payable": false,
      "stateMutability": "view",
      "type": "function"
    },
    {
      "constant": false,
      "inputs": [
        {
          "name": "_from",
          "type": "address"
        },
        {
          "name": "_to",
          "type": "address"
        },
        {
          "name": "_value",
          "type": "uint256"
        }
      ],
      "name": "transferFrom",
      "outputs": [
        {
          "name": "",
          "type": "bool"
        }
      ],
      "payable": false,
      "stateMutability": "nonpayable",
      "type": "function"
    },
    {
      "constant": false,
      "inputs": [
        {
          "name": "_to",
          "type": "address"
        },
        {
          "name": "_amount",
          "type": "uint256"
        },
        {
          "name": "_until",
          "type": "uint64"
        }
      ],
      "name": "freezeTo",
      "outputs": [],
      "payable": false,
      "stateMutability": "nonpayable",
      "type": "function"
    },
    {
      "constant": false,
      "inputs": [
        {
          "name": "_to",
          "type": "address"
        },
        {
          "name": "_amount",
          "type": "uint256"
        }
      ],
      "name": "mint",
      "outputs": [
        {
          "name": "",
          "type": "bool"
        }
      ],
      "payable": false,
      "stateMutability": "nonpayable",
      "type": "function"
    },
    {
      "constant": false,
      "inputs": [],
      "name": "releaseAll",
      "outputs": [
        {
          "name": "tokens",
          "type": "uint256"
        }
      ],
      "payable": false,
      "stateMutability": "nonpayable",
      "type": "function"
    },
    {
      "constant": false,
      "inputs": [
        {
          "name": "_spender",
          "type": "address"
        },
        {
          "name": "_subtractedValue",
          "type": "uint256"
        }
      ],
      "name": "decreaseApproval",
      "outputs": [
        {
          "name": "",
          "type": "bool"
        }
      ],
      "payable": false,
      "stateMutability": "nonpayable",
      "type": "function"
    },
    {
      "constant": false,
      "inputs": [],
      "name": "releaseOnce",
      "outputs": [],
      "payable": false,
      "stateMutability": "nonpayable",
      "type": "function"
    },
    {
      "constant": true,
      "inputs": [
        {
          "name": "_owner",
          "type": "address"
        }
      ],
      "name": "balanceOf",
      "outputs": [
        {
          "name": "balance",
          "type": "uint256"
        }
      ],
      "payable": false,
      "stateMutability": "view",
      "type": "function"
    },
    {
      "constant": false,
      "inputs": [],
      "name": "renounceOwnership",
      "outputs": [],
      "payable": false,
      "stateMutability": "nonpayable",
      "type": "function"
    },
    {
      "constant": false,
      "inputs": [],
      "name": "finishMinting",
      "outputs": [
        {
          "name": "",
          "type": "bool"
        }
      ],
      "payable": false,
      "stateMutability": "nonpayable",
      "type": "function"
    },
    {
      "constant": true,
      "inputs": [],
      "name": "owner",
      "outputs": [
        {
          "name": "",
          "type": "address"
        }
      ],
      "payable": false,
      "stateMutability": "view",
      "type": "function"
    },
    {
      "constant": false,
      "inputs": [
        {
          "name": "_to",
          "type": "address"
        },
        {
          "name": "_value",
          "type": "uint256"
        }
      ],
      "name": "transfer",
      "outputs": [
        {
          "name": "",
          "type": "bool"
        }
      ],
      "payable": false,
      "stateMutability": "nonpayable",
      "type": "function"
    },
    {
      "constant": true,
      "inputs": [
        {
          "name": "_addr",
          "type": "address"
        }
      ],
      "name": "freezingCount",
      "outputs": [
        {
          "name": "count",
          "type": "uint256"
        }
      ],
      "payable": false,
      "stateMutability": "view",
      "type": "function"
    },
    {
      "constant": false,
      "inputs": [
        {
          "name": "_spender",
          "type": "address"
        },
        {
          "name": "_addedValue",
          "type": "uint256"
        }
      ],
      "name": "increaseApproval",
      "outputs": [
        {
          "name": "",
          "type": "bool"
        }
      ],
      "payable": false,
      "stateMutability": "nonpayable",
      "type": "function"
    },
    {
      "constant": true,
      "inputs": [
        {
          "name": "_owner",
          "type": "address"
        }
      ],
      "name": "freezingBalanceOf",
      "outputs": [
        {
          "name": "balance",
          "type": "uint256"
        }
      ],
      "payable": false,
      "stateMutability": "view",
      "type": "function"
    },
    {
      "constant": true,
      "inputs": [
        {
          "name": "_owner",
          "type": "address"
        },
        {
          "name": "_spender",
          "type": "address"
        }
      ],
      "name": "allowance",
      "outputs": [
        {
          "name": "",
          "type": "uint256"
        }
      ],
      "payable": false,
      "stateMutability": "view",
      "type": "function"
    },
    {
      "constant": false,
      "inputs": [
        {
          "name": "_newOwner",
          "type": "address"
        }
      ],
      "name": "transferOwnership",
      "outputs": [],
      "payable": false,
      "stateMutability": "nonpayable",
      "type": "function"
    },
    {
      "anonymous": false,
      "inputs": [
        {
          "indexed": true,
          "name": "to",
          "type": "address"
        },
        {
          "indexed": false,
          "name": "amount",
          "type": "uint256"
        }
      ],
      "name": "Mint",
      "type": "event"
    },
    {
      "anonymous": false,
      "inputs": [],
      "name": "MintFinished",
      "type": "event"
    },
    {
      "anonymous": false,
      "inputs": [
        {
          "indexed": true,
          "name": "previousOwner",
          "type": "address"
        }
      ],
      "name": "OwnershipRenounced",
      "type": "event"
    },
    {
      "anonymous": false,
      "inputs": [
        {
          "indexed": true,
          "name": "previousOwner",
          "type": "address"
        },
        {
          "indexed": true,
          "name": "newOwner",
          "type": "address"
        }
      ],
      "name": "OwnershipTransferred",
      "type": "event"
    },
    {
      "anonymous": false,
      "inputs": [
        {
          "indexed": true,
          "name": "to",
          "type": "address"
        },
        {
          "indexed": false,
          "name": "release",
          "type": "uint64"
        },
        {
          "indexed": false,
          "name": "amount",
          "type": "uint256"
        }
      ],
      "name": "Freezed",
      "type": "event"
    },
    {
      "anonymous": false,
      "inputs": [
        {
          "indexed": true,
          "name": "owner",
          "type": "address"
        },
        {
          "indexed": false,
          "name": "amount",
          "type": "uint256"
        }
      ],
      "name": "Released",
      "type": "event"
    },
    {
      "anonymous": false,
      "inputs": [
        {
          "indexed": true,
          "name": "owner",
          "type": "address"
        },
        {
          "indexed": true,
          "name": "spender",
          "type": "address"
        },
        {
          "indexed": false,
          "name": "value",
          "type": "uint256"
        }
      ],
      "name": "Approval",
      "type": "event"
    },
    {
      "anonymous": false,
      "inputs": [
        {
          "indexed": true,
          "name": "from",
          "type": "address"
        },
        {
          "indexed": true,
          "name": "to",
          "type": "address"
        },
        {
          "indexed": false,
          "name": "value",
          "type": "uint256"
        }
      ],
      "name": "Transfer",
      "type": "event"
    },
    {
      "constant": false,
      "inputs": [
        {
          "name": "_to",
          "type": "address"
        },
        {
          "name": "_amount",
          "type": "uint256"
        },
        {
          "name": "_until",
          "type": "uint64"
        }
      ],
      "name": "mintAndFreeze",
      "outputs": [
        {
          "name": "",
          "type": "bool"
        }
      ],
      "payable": false,
      "stateMutability": "nonpayable",
      "type": "function"
    }
  ],
  "bytecode": "0x608060405260068054600160a860020a0319163317905561142b806100256000396000f3006080604052600436106101275763ffffffff7c010000000000000000000000000000000000000000000000000000000060003504166302d6f730811461012c57806305d2035b14610174578063095ea7b31461019d5780630bb2cd6b146101c157806317a950ac146101f257806318160ddd1461022557806323b872dd1461023a5780633be1e9521461026457806340c10f19146102975780635be7fde8146102bb57806366188463146102d057806366a92cda146102f457806370a0823114610309578063715018a61461032a5780637d64bcb41461033f5780638da5cb5b14610354578063a9059cbb14610385578063ca63b5b8146103a9578063d73dd623146103ca578063d8aeedf5146103ee578063dd62ed3e1461040f578063f2fde38b14610436575b600080fd5b34801561013857600080fd5b50610150600160a060020a0360043516602435610457565b6040805167ffffffffffffffff909316835260208301919091528051918290030190f35b34801561018057600080fd5b506101896104e4565b604080519115158252519081900360200190f35b3480156101a957600080fd5b50610189600160a060020a03600435166024356104f4565b3480156101cd57600080fd5b50610189600160a060020a036004351660243567ffffffffffffffff6044351661055a565b3480156101fe57600080fd5b50610213600160a060020a03600435166106f8565b60408051918252519081900360200190f35b34801561023157600080fd5b50610213610709565b34801561024657600080fd5b50610189600160a060020a036004358116906024351660443561070f565b34801561027057600080fd5b50610295600160a060020a036004351660243567ffffffffffffffff60443516610874565b005b3480156102a357600080fd5b50610189600160a060020a03600435166024356109e8565b3480156102c757600080fd5b50610213610ae0565b3480156102dc57600080fd5b50610189600160a060020a0360043516602435610b45565b34801561030057600080fd5b50610295610c35565b34801561031557600080fd5b50610213600160a060020a0360043516610dd8565b34801561033657600080fd5b50610295610e01565b34801561034b57600080fd5b50610189610e6f565b34801561036057600080fd5b50610369610ef3565b60408051600160a060020a039092168252519081900360200190f35b34801561039157600080fd5b50610189600160a060020a0360043516602435610f02565b3480156103b557600080fd5b50610213600160a060020a0360043516610fd1565b3480156103d657600080fd5b50610189600160a060020a0360043516602435611057565b3480156103fa57600080fd5b50610213600160a060020a03600435166110f0565b34801561041b57600080fd5b50610213600160a060020a036004358116906024351661110b565b34801561044257600080fd5b50610295600160a060020a0360043516611136565b600080805b836001018110156104b0576003600061047f878667ffffffffffffffff16611159565b815260208101919091526040016000205467ffffffffffffffff1692508215156104a8576104dc565b60010161045c565b600460006104c8878667ffffffffffffffff16611159565b815260208101919091526040016000205491505b509250929050565b60065460a060020a900460ff1681565b336000818152600260209081526040808320600160a060020a038716808552908352818420869055815186815291519394909390927f8c5be1e5ebec7d5bd14f71427d1e84f3dd0314c0f7b2291e5b200ac8c7c3b925928290030190a350600192915050565b6006546000908190600160a060020a0316331461057657600080fd5b60065460a060020a900460ff161561058d57600080fd5b6001546105a0908563ffffffff61118d16565b6001556105b78567ffffffffffffffff8516611159565b6000818152600460205260409020549091506105d9908563ffffffff61118d16565b600082815260046020908152604080832093909355600160a060020a0388168252600590522054610610908563ffffffff61118d16565b600160a060020a038616600090815260056020526040902055610633858461119a565b604080518581529051600160a060020a038716917f0f6798a560793a54c3bcfe86a93cde1e73087d944c0ea20544137d4121396885919081900360200190a26040805167ffffffffffffffff85168152602081018690528151600160a060020a038816927f2ecd071e4d10ed2221b04636ed0724cce66a873aa98c1a31b4bb0e6846d3aab4928290030190a2604080518581529051600160a060020a0387169133916000805160206113e08339815191529181900360200190a3506001949350505050565b600061070382611334565b92915050565b60015490565b6000600160a060020a038316151561072657600080fd5b600160a060020a03841660009081526020819052604090205482111561074b57600080fd5b600160a060020a038416600090815260026020908152604080832033845290915290205482111561077b57600080fd5b600160a060020a0384166000908152602081905260409020546107a4908363ffffffff61134f16565b600160a060020a0380861660009081526020819052604080822093909355908516815220546107d9908363ffffffff61118d16565b600160a060020a0380851660009081526020818152604080832094909455918716815260028252828120338252909152205461081b908363ffffffff61134f16565b600160a060020a03808616600081815260026020908152604080832033845282529182902094909455805186815290519287169391926000805160206113e0833981519152929181900390910190a35060019392505050565b6000600160a060020a038416151561088b57600080fd5b336000908152602081905260409020548311156108a757600080fd5b336000908152602081905260409020546108c7908463ffffffff61134f16565b336000908152602081905260409020556108eb8467ffffffffffffffff8416611159565b60008181526004602052604090205490915061090d908463ffffffff61118d16565b600082815260046020908152604080832093909355600160a060020a0387168252600590522054610944908463ffffffff61118d16565b600160a060020a038516600090815260056020526040902055610967848361119a565b604080518481529051600160a060020a0386169133916000805160206113e08339815191529181900360200190a36040805167ffffffffffffffff84168152602081018590528151600160a060020a038716927f2ecd071e4d10ed2221b04636ed0724cce66a873aa98c1a31b4bb0e6846d3aab4928290030190a250505050565b600654600090600160a060020a03163314610a0257600080fd5b60065460a060020a900460ff1615610a1957600080fd5b600154610a2c908363ffffffff61118d16565b600155600160a060020a038316600090815260208190526040902054610a58908363ffffffff61118d16565b600160a060020a03841660008181526020818152604091829020939093558051858152905191927f0f6798a560793a54c3bcfe86a93cde1e73087d944c0ea20544137d412139688592918290030190a2604080518381529051600160a060020a038516916000916000805160206113e08339815191529181900360200190a350600192915050565b6000806000610af0336000610457565b67ffffffffffffffff909116925090505b8115801590610b0f57508142115b15610b4057610b1c610c35565b91820191610b2b336000610457565b67ffffffffffffffff90911692509050610b01565b505090565b336000908152600260209081526040808320600160a060020a038616845290915281205480831115610b9a57336000908152600260209081526040808320600160a060020a0388168452909152812055610bcf565b610baa818463ffffffff61134f16565b336000908152600260209081526040808320600160a060020a03891684529091529020555b336000818152600260209081526040808320600160a060020a0389168085529083529281902054815190815290519293927f8c5be1e5ebec7d5bd14f71427d1e84f3dd0314c0f7b2291e5b200ac8c7c3b925929181900390910190a35060019392505050565b6000806000806000610c48336000611159565b60008181526003602052604090205490955067ffffffffffffffff169350831515610c7257600080fd5b8367ffffffffffffffff164267ffffffffffffffff16111515610c9457600080fd5b610ca8338567ffffffffffffffff16611159565b600081815260036020908152604080832054600483528184208054908590553385529284905292205492955067ffffffffffffffff90911693509150610cf4908263ffffffff61118d16565b3360009081526020818152604080832093909355600590522054610d1e908263ffffffff61134f16565b3360009081526005602052604090205567ffffffffffffffff82161515610d61576000858152600360205260409020805467ffffffffffffffff19169055610d9b565b600085815260036020526040808220805467ffffffffffffffff861667ffffffffffffffff19918216179091558583529120805490911690555b60408051828152905133917fb21fb52d5749b80f3182f8c6992236b5e5576681880914484d7f4c9b062e619e919081900360200190a25050505050565b600160a060020a038116600090815260056020526040812054610dfa83611334565b0192915050565b600654600160a060020a03163314610e1857600080fd5b600654604051600160a060020a03909116907ff8df31144d9c2f0f6b59d69b8b98abd5459d07f2742c4df920b25aae33c6482090600090a26006805473ffffffffffffffffffffffffffffffffffffffff19169055565b600654600090600160a060020a03163314610e8957600080fd5b60065460a060020a900460ff1615610ea057600080fd5b6006805474ff0000000000000000000000000000000000000000191660a060020a1790556040517fae5184fba832cb2b1f702aca6117b8d265eaf03ad33eb133f19dde0f5920fa0890600090a150600190565b600654600160a060020a031681565b6000600160a060020a0383161515610f1957600080fd5b33600090815260208190526040902054821115610f3557600080fd5b33600090815260208190526040902054610f55908363ffffffff61134f16565b3360009081526020819052604080822092909255600160a060020a03851681522054610f87908363ffffffff61118d16565b600160a060020a038416600081815260208181526040918290209390935580518581529051919233926000805160206113e08339815191529281900390910190a350600192915050565b60008060036000610fe3856000611159565b815260208101919091526040016000205467ffffffffffffffff1690505b67ffffffffffffffff811615611051576001909101906003600061102f8567ffffffffffffffff8516611159565b815260208101919091526040016000205467ffffffffffffffff169050611001565b50919050565b336000908152600260209081526040808320600160a060020a038616845290915281205461108b908363ffffffff61118d16565b336000818152600260209081526040808320600160a060020a0389168085529083529281902085905580519485525191937f8c5be1e5ebec7d5bd14f71427d1e84f3dd0314c0f7b2291e5b200ac8c7c3b925929081900390910190a350600192915050565b600160a060020a031660009081526005602052604090205490565b600160a060020a03918216600090815260026020908152604080832093909416825291909152205490565b600654600160a060020a0316331461114d57600080fd5b61115681611361565b50565b6801000000000000000091909102177f57495348000000000000000000000000000000000000000000000000000000001790565b8181018281101561070357fe5b6000808080804267ffffffffffffffff8716116111b657600080fd5b6111ca878767ffffffffffffffff16611159565b94506111d7876000611159565b60008181526003602052604090205490945067ffffffffffffffff16925082151561122a576000848152600360205260409020805467ffffffffffffffff191667ffffffffffffffff881617905561132b565b61123e878467ffffffffffffffff16611159565b91505b67ffffffffffffffff83161580159061126d57508267ffffffffffffffff168667ffffffffffffffff16115b156112a6575060008181526003602052604090205490925067ffffffffffffffff9081169183911661129f8784611159565b9150611241565b8267ffffffffffffffff168667ffffffffffffffff1614156112c75761132b565b67ffffffffffffffff831615611301576000858152600360205260409020805467ffffffffffffffff191667ffffffffffffffff85161790555b6000848152600360205260409020805467ffffffffffffffff191667ffffffffffffffff88161790555b50505050505050565b600160a060020a031660009081526020819052604090205490565b60008282111561135b57fe5b50900390565b600160a060020a038116151561137657600080fd5b600654604051600160a060020a038084169216907f8be0079c531659141344cd1fd0a4f28419497f9722a3daafe3b4186f6b6457e090600090a36006805473ffffffffffffffffffffffffffffffffffffffff1916600160a060020a03929092169190911790555600ddf252ad1be2c89b69c2b068fc378daa952ba7f163c4a11628f55a4df523b3efa165627a7a72305820c40901dd7f9309f85e5ab7b3d3b53d1307f43fdc333cbe2165991a0f20dd6b6a0029",
  "source": "pragma solidity ^0.4.23;\n\nimport \"openzeppelin-solidity/contracts/token/ERC20/MintableToken.sol\";\nimport \"./FreezableToken.sol\";\n\n\ncontract FreezableMintableToken is FreezableToken, MintableToken {\n    /**\n     * @dev Mint the specified amount of token to the specified address and freeze it until the specified date.\n     *      Be careful, gas usage is not deterministic,\n     *      and depends on how many freezes _to address already has.\n     * @param _to Address to which token will be freeze.\n     * @param _amount Amount of token to mint and freeze.\n     * @param _until Release date, must be in future.\n     * @return A boolean that indicates if the operation was successful.\n     */\n    function mintAndFreeze(address _to, uint _amount, uint64 _until) public onlyOwner canMint returns (bool) {\n        totalSupply_ = totalSupply_.add(_amount);\n\n        bytes32 currentKey = toKey(_to, _until);\n        freezings[currentKey] = freezings[currentKey].add(_amount);\n        freezingBalance[_to] = freezingBalance[_to].add(_amount);\n\n        freeze(_to, _until);\n        emit Mint(_to, _amount);\n        emit Freezed(_to, _until, _amount);\n        emit Transfer(msg.sender, _to, _amount);\n        return true;\n    }\n}\n",
  "sourcePath": "/var/www/lastwill/temp/3c747d54-6182-43e5-8270-37730aa0099f/contracts/FreezableMintableToken.sol",
  "compiler": {
    "name": "solc",
    "version": "0.4.24+commit.e67f0147.Emscripten.clang"
  },
  "schemaVersion": "2.0.1",
  "updatedAt": "2019-01-13T19:26:08.310Z"
}