{
  "contractName": "FreezableToken",
  "abi": [
    {
      "constant": false,
      "inputs": [
        {
          "name": "_spender",
          "type": "address"
        },
        {
          "name": "_value",
          "type": "uint256"
        }
      ],
      "name": "approve",
      "outputs": [
        {
          "name": "",
          "type": "bool"
        }
      ],
      "payable": false,
      "stateMutability": "nonpayable",
      "type": "function"
    },
    {
      "constant": true,
      "inputs": [],
      "name": "totalSupply",
      "outputs": [
        {
          "name": "",
          "type": "uint256"
        }
      ],
      "payable": false,
      "stateMutability": "view",
      "type": "function"
    },
    {
      "constant": false,
      "inputs": [
        {
          "name": "_from",
          "type": "address"
        },
        {
          "name": "_to",
          "type": "address"
        },
        {
          "name": "_value",
          "type": "uint256"
        }
      ],
      "name": "transferFrom",
      "outputs": [
        {
          "name": "",
          "type": "bool"
        }
      ],
      "payable": false,
      "stateMutability": "nonpayable",
      "type": "function"
    },
    {
      "constant": false,
      "inputs": [
        {
          "name": "_spender",
          "type": "address"
        },
        {
          "name": "_subtractedValue",
          "type": "uint256"
        }
      ],
      "name": "decreaseApproval",
      "outputs": [
        {
          "name": "",
          "type": "bool"
        }
      ],
      "payable": false,
      "stateMutability": "nonpayable",
      "type": "function"
    },
    {
      "constant": false,
      "inputs": [
        {
          "name": "_to",
          "type": "address"
        },
        {
          "name": "_value",
          "type": "uint256"
        }
      ],
      "name": "transfer",
      "outputs": [
        {
          "name": "",
          "type": "bool"
        }
      ],
      "payable": false,
      "stateMutability": "nonpayable",
      "type": "function"
    },
    {
      "constant": false,
      "inputs": [
        {
          "name": "_spender",
          "type": "address"
        },
        {
          "name": "_addedValue",
          "type": "uint256"
        }
      ],
      "name": "increaseApproval",
      "outputs": [
        {
          "name": "",
          "type": "bool"
        }
      ],
      "payable": false,
      "stateMutability": "nonpayable",
      "type": "function"
    },
    {
      "constant": true,
      "inputs": [
        {
          "name": "_owner",
          "type": "address"
        },
        {
          "name": "_spender",
          "type": "address"
        }
      ],
      "name": "allowance",
      "outputs": [
        {
          "name": "",
          "type": "uint256"
        }
      ],
      "payable": false,
      "stateMutability": "view",
      "type": "function"
    },
    {
      "anonymous": false,
      "inputs": [
        {
          "indexed": true,
          "name": "to",
          "type": "address"
        },
        {
          "indexed": false,
          "name": "release",
          "type": "uint64"
        },
        {
          "indexed": false,
          "name": "amount",
          "type": "uint256"
        }
      ],
      "name": "Freezed",
      "type": "event"
    },
    {
      "anonymous": false,
      "inputs": [
        {
          "indexed": true,
          "name": "owner",
          "type": "address"
        },
        {
          "indexed": false,
          "name": "amount",
          "type": "uint256"
        }
      ],
      "name": "Released",
      "type": "event"
    },
    {
      "anonymous": false,
      "inputs": [
        {
          "indexed": true,
          "name": "owner",
          "type": "address"
        },
        {
          "indexed": true,
          "name": "spender",
          "type": "address"
        },
        {
          "indexed": false,
          "name": "value",
          "type": "uint256"
        }
      ],
      "name": "Approval",
      "type": "event"
    },
    {
      "anonymous": false,
      "inputs": [
        {
          "indexed": true,
          "name": "from",
          "type": "address"
        },
        {
          "indexed": true,
          "name": "to",
          "type": "address"
        },
        {
          "indexed": false,
          "name": "value",
          "type": "uint256"
        }
      ],
      "name": "Transfer",
      "type": "event"
    },
    {
      "constant": true,
      "inputs": [
        {
          "name": "_owner",
          "type": "address"
        }
      ],
      "name": "balanceOf",
      "outputs": [
        {
          "name": "balance",
          "type": "uint256"
        }
      ],
      "payable": false,
      "stateMutability": "view",
      "type": "function"
    },
    {
      "constant": true,
      "inputs": [
        {
          "name": "_owner",
          "type": "address"
        }
      ],
      "name": "actualBalanceOf",
      "outputs": [
        {
          "name": "balance",
          "type": "uint256"
        }
      ],
      "payable": false,
      "stateMutability": "view",
      "type": "function"
    },
    {
      "constant": true,
      "inputs": [
        {
          "name": "_owner",
          "type": "address"
        }
      ],
      "name": "freezingBalanceOf",
      "outputs": [
        {
          "name": "balance",
          "type": "uint256"
        }
      ],
      "payable": false,
      "stateMutability": "view",
      "type": "function"
    },
    {
      "constant": true,
      "inputs": [
        {
          "name": "_addr",
          "type": "address"
        }
      ],
      "name": "freezingCount",
      "outputs": [
        {
          "name": "count",
          "type": "uint256"
        }
      ],
      "payable": false,
      "stateMutability": "view",
      "type": "function"
    },
    {
      "constant": true,
      "inputs": [
        {
          "name": "_addr",
          "type": "address"
        },
        {
          "name": "_index",
          "type": "uint256"
        }
      ],
      "name": "getFreezing",
      "outputs": [
        {
          "name": "_release",
          "type": "uint64"
        },
        {
          "name": "_balance",
          "type": "uint256"
        }
      ],
      "payable": false,
      "stateMutability": "view",
      "type": "function"
    },
    {
      "constant": false,
      "inputs": [
        {
          "name": "_to",
          "type": "address"
        },
        {
          "name": "_amount",
          "type": "uint256"
        },
        {
          "name": "_until",
          "type": "uint64"
        }
      ],
      "name": "freezeTo",
      "outputs": [],
      "payable": false,
      "stateMutability": "nonpayable",
      "type": "function"
    },
    {
      "constant": false,
      "inputs": [],
      "name": "releaseOnce",
      "outputs": [],
      "payable": false,
      "stateMutability": "nonpayable",
      "type": "function"
    },
    {
      "constant": false,
      "inputs": [],
      "name": "releaseAll",
      "outputs": [
        {
          "name": "tokens",
          "type": "uint256"
        }
      ],
      "payable": false,
      "stateMutability": "nonpayable",
      "type": "function"
    }
  ],
  "bytecode": "0x608060405234801561001057600080fd5b50610ec6806100206000396000f3006080604052600436106100da5763ffffffff7c010000000000000000000000000000000000000000000000000000000060003504166302d6f73081146100df578063095ea7b31461012757806317a950ac1461015f57806318160ddd1461019257806323b872dd146101a75780633be1e952146101d15780635be7fde814610204578063661884631461021957806366a92cda1461023d57806370a0823114610252578063a9059cbb14610273578063ca63b5b814610297578063d73dd623146102b8578063d8aeedf5146102dc578063dd62ed3e146102fd575b600080fd5b3480156100eb57600080fd5b50610103600160a060020a0360043516602435610324565b6040805167ffffffffffffffff909316835260208301919091528051918290030190f35b34801561013357600080fd5b5061014b600160a060020a03600435166024356103b1565b604080519115158252519081900360200190f35b34801561016b57600080fd5b50610180600160a060020a0360043516610417565b60408051918252519081900360200190f35b34801561019e57600080fd5b50610180610428565b3480156101b357600080fd5b5061014b600160a060020a036004358116906024351660443561042e565b3480156101dd57600080fd5b50610202600160a060020a036004351660243567ffffffffffffffff604435166105a5565b005b34801561021057600080fd5b5061018061072b565b34801561022557600080fd5b5061014b600160a060020a0360043516602435610790565b34801561024957600080fd5b50610202610880565b34801561025e57600080fd5b50610180600160a060020a0360043516610a23565b34801561027f57600080fd5b5061014b600160a060020a0360043516602435610a4c565b3480156102a357600080fd5b50610180600160a060020a0360043516610b2d565b3480156102c457600080fd5b5061014b600160a060020a0360043516602435610bb3565b3480156102e857600080fd5b50610180600160a060020a0360043516610c4c565b34801561030957600080fd5b50610180600160a060020a0360043581169060243516610c67565b600080805b8360010181101561037d576003600061034c878667ffffffffffffffff16610c92565b815260208101919091526040016000205467ffffffffffffffff169250821515610375576103a9565b600101610329565b60046000610395878667ffffffffffffffff16610c92565b815260208101919091526040016000205491505b509250929050565b336000818152600260209081526040808320600160a060020a038716808552908352818420869055815186815291519394909390927f8c5be1e5ebec7d5bd14f71427d1e84f3dd0314c0f7b2291e5b200ac8c7c3b925928290030190a350600192915050565b600061042282610cc6565b92915050565b60015490565b6000600160a060020a038316151561044557600080fd5b600160a060020a03841660009081526020819052604090205482111561046a57600080fd5b600160a060020a038416600090815260026020908152604080832033845290915290205482111561049a57600080fd5b600160a060020a0384166000908152602081905260409020546104c3908363ffffffff610ce116565b600160a060020a0380861660009081526020819052604080822093909355908516815220546104f8908363ffffffff610cf316565b600160a060020a0380851660009081526020818152604080832094909455918716815260028252828120338252909152205461053a908363ffffffff610ce116565b600160a060020a03808616600081815260026020908152604080832033845282529182902094909455805186815290519287169391927fddf252ad1be2c89b69c2b068fc378daa952ba7f163c4a11628f55a4df523b3ef929181900390910190a35060019392505050565b6000600160a060020a03841615156105bc57600080fd5b336000908152602081905260409020548311156105d857600080fd5b336000908152602081905260409020546105f8908463ffffffff610ce116565b3360009081526020819052604090205561061c8467ffffffffffffffff8416610c92565b60008181526004602052604090205490915061063e908463ffffffff610cf316565b600082815260046020908152604080832093909355600160a060020a0387168252600590522054610675908463ffffffff610cf316565b600160a060020a0385166000908152600560205260409020556106988483610d00565b604080518481529051600160a060020a0386169133917fddf252ad1be2c89b69c2b068fc378daa952ba7f163c4a11628f55a4df523b3ef9181900360200190a36040805167ffffffffffffffff84168152602081018590528151600160a060020a038716927f2ecd071e4d10ed2221b04636ed0724cce66a873aa98c1a31b4bb0e6846d3aab4928290030190a250505050565b600080600061073b336000610324565b67ffffffffffffffff909116925090505b811580159061075a57508142115b1561078b57610767610880565b91820191610776336000610324565b67ffffffffffffffff9091169250905061074c565b505090565b336000908152600260209081526040808320600160a060020a0386168452909152812054808311156107e557336000908152600260209081526040808320600160a060020a038816845290915281205561081a565b6107f5818463ffffffff610ce116565b336000908152600260209081526040808320600160a060020a03891684529091529020555b336000818152600260209081526040808320600160a060020a0389168085529083529281902054815190815290519293927f8c5be1e5ebec7d5bd14f71427d1e84f3dd0314c0f7b2291e5b200ac8c7c3b925929181900390910190a35060019392505050565b6000806000806000610893336000610c92565b60008181526003602052604090205490955067ffffffffffffffff1693508315156108bd57600080fd5b8367ffffffffffffffff164267ffffffffffffffff161115156108df57600080fd5b6108f3338567ffffffffffffffff16610c92565b600081815260036020908152604080832054600483528184208054908590553385529284905292205492955067ffffffffffffffff9091169350915061093f908263ffffffff610cf316565b3360009081526020818152604080832093909355600590522054610969908263ffffffff610ce116565b3360009081526005602052604090205567ffffffffffffffff821615156109ac576000858152600360205260409020805467ffffffffffffffff191690556109e6565b600085815260036020526040808220805467ffffffffffffffff861667ffffffffffffffff19918216179091558583529120805490911690555b60408051828152905133917fb21fb52d5749b80f3182f8c6992236b5e5576681880914484d7f4c9b062e619e919081900360200190a25050505050565b600160a060020a038116600090815260056020526040812054610a4583610cc6565b0192915050565b6000600160a060020a0383161515610a6357600080fd5b33600090815260208190526040902054821115610a7f57600080fd5b33600090815260208190526040902054610a9f908363ffffffff610ce116565b3360009081526020819052604080822092909255600160a060020a03851681522054610ad1908363ffffffff610cf316565b600160a060020a038416600081815260208181526040918290209390935580518581529051919233927fddf252ad1be2c89b69c2b068fc378daa952ba7f163c4a11628f55a4df523b3ef9281900390910190a350600192915050565b60008060036000610b3f856000610c92565b815260208101919091526040016000205467ffffffffffffffff1690505b67ffffffffffffffff811615610bad5760019091019060036000610b8b8567ffffffffffffffff8516610c92565b815260208101919091526040016000205467ffffffffffffffff169050610b5d565b50919050565b336000908152600260209081526040808320600160a060020a0386168452909152812054610be7908363ffffffff610cf316565b336000818152600260209081526040808320600160a060020a0389168085529083529281902085905580519485525191937f8c5be1e5ebec7d5bd14f71427d1e84f3dd0314c0f7b2291e5b200ac8c7c3b925929081900390910190a350600192915050565b600160a060020a031660009081526005602052604090205490565b600160a060020a03918216600090815260026020908152604080832093909416825291909152205490565b6801000000000000000091909102177f57495348000000000000000000000000000000000000000000000000000000001790565b600160a060020a031660009081526020819052604090205490565b600082821115610ced57fe5b50900390565b8181018281101561042257fe5b6000808080804267ffffffffffffffff871611610d1c57600080fd5b610d30878767ffffffffffffffff16610c92565b9450610d3d876000610c92565b60008181526003602052604090205490945067ffffffffffffffff169250821515610d90576000848152600360205260409020805467ffffffffffffffff191667ffffffffffffffff8816179055610e91565b610da4878467ffffffffffffffff16610c92565b91505b67ffffffffffffffff831615801590610dd357508267ffffffffffffffff168667ffffffffffffffff16115b15610e0c575060008181526003602052604090205490925067ffffffffffffffff90811691839116610e058784610c92565b9150610da7565b8267ffffffffffffffff168667ffffffffffffffff161415610e2d57610e91565b67ffffffffffffffff831615610e67576000858152600360205260409020805467ffffffffffffffff191667ffffffffffffffff85161790555b6000848152600360205260409020805467ffffffffffffffff191667ffffffffffffffff88161790555b505050505050505600a165627a7a7230582064862decc544a6bc4f9c61ae2656a70f324952f02f4fde345a8c14e6beda1fe50029",
  "source": "pragma solidity ^0.4.23;\n\nimport \"openzeppelin-solidity/contracts/token/ERC20/StandardToken.sol\";\n\n\ncontract FreezableToken is StandardToken {\n    // freezing chains\n    mapping (bytes32 => uint64) internal chains;\n    // freezing amounts for each chain\n    mapping (bytes32 => uint) internal freezings;\n    // total freezing balance per address\n    mapping (address => uint) internal freezingBalance;\n\n    event Freezed(address indexed to, uint64 release, uint amount);\n    event Released(address indexed owner, uint amount);\n\n    /**\n     * @dev Gets the balance of the specified address include freezing tokens.\n     * @param _owner The address to query the the balance of.\n     * @return An uint256 representing the amount owned by the passed address.\n     */\n    function balanceOf(address _owner) public view returns (uint256 balance) {\n        return super.balanceOf(_owner) + freezingBalance[_owner];\n    }\n\n    /**\n     * @dev Gets the balance of the specified address without freezing tokens.\n     * @param _owner The address to query the the balance of.\n     * @return An uint256 representing the amount owned by the passed address.\n     */\n    function actualBalanceOf(address _owner) public view returns (uint256 balance) {\n        return super.balanceOf(_owner);\n    }\n\n    function freezingBalanceOf(address _owner) public view returns (uint256 balance) {\n        return freezingBalance[_owner];\n    }\n\n    /**\n     * @dev gets freezing count\n     * @param _addr Address of freeze tokens owner.\n     */\n    function freezingCount(address _addr) public view returns (uint count) {\n        uint64 release = chains[toKey(_addr, 0)];\n        while (release != 0) {\n            count++;\n            release = chains[toKey(_addr, release)];\n        }\n    }\n\n    /**\n     * @dev gets freezing end date and freezing balance for the freezing portion specified by index.\n     * @param _addr Address of freeze tokens owner.\n     * @param _index Freezing portion index. It ordered by release date descending.\n     */\n    function getFreezing(address _addr, uint _index) public view returns (uint64 _release, uint _balance) {\n        for (uint i = 0; i < _index + 1; i++) {\n            _release = chains[toKey(_addr, _release)];\n            if (_release == 0) {\n                return;\n            }\n        }\n        _balance = freezings[toKey(_addr, _release)];\n    }\n\n    /**\n     * @dev freeze your tokens to the specified address.\n     *      Be careful, gas usage is not deterministic,\n     *      and depends on how many freezes _to address already has.\n     * @param _to Address to which token will be freeze.\n     * @param _amount Amount of token to freeze.\n     * @param _until Release date, must be in future.\n     */\n    function freezeTo(address _to, uint _amount, uint64 _until) public {\n        require(_to != address(0));\n        require(_amount <= balances[msg.sender]);\n\n        balances[msg.sender] = balances[msg.sender].sub(_amount);\n\n        bytes32 currentKey = toKey(_to, _until);\n        freezings[currentKey] = freezings[currentKey].add(_amount);\n        freezingBalance[_to] = freezingBalance[_to].add(_amount);\n\n        freeze(_to, _until);\n        emit Transfer(msg.sender, _to, _amount);\n        emit Freezed(_to, _until, _amount);\n    }\n\n    /**\n     * @dev release first available freezing tokens.\n     */\n    function releaseOnce() public {\n        bytes32 headKey = toKey(msg.sender, 0);\n        uint64 head = chains[headKey];\n        require(head != 0);\n        require(uint64(block.timestamp) > head);\n        bytes32 currentKey = toKey(msg.sender, head);\n\n        uint64 next = chains[currentKey];\n\n        uint amount = freezings[currentKey];\n        delete freezings[currentKey];\n\n        balances[msg.sender] = balances[msg.sender].add(amount);\n        freezingBalance[msg.sender] = freezingBalance[msg.sender].sub(amount);\n\n        if (next == 0) {\n            delete chains[headKey];\n        } else {\n            chains[headKey] = next;\n            delete chains[currentKey];\n        }\n        emit Released(msg.sender, amount);\n    }\n\n    /**\n     * @dev release all available for release freezing tokens. Gas usage is not deterministic!\n     * @return how many tokens was released\n     */\n    function releaseAll() public returns (uint tokens) {\n        uint release;\n        uint balance;\n        (release, balance) = getFreezing(msg.sender, 0);\n        while (release != 0 && block.timestamp > release) {\n            releaseOnce();\n            tokens += balance;\n            (release, balance) = getFreezing(msg.sender, 0);\n        }\n    }\n\n    function toKey(address _addr, uint _release) internal pure returns (bytes32 result) {\n        // WISH masc to increase entropy\n        result = 0x5749534800000000000000000000000000000000000000000000000000000000;\n        assembly {\n            result := or(result, mul(_addr, 0x10000000000000000))\n            result := or(result, _release)\n        }\n    }\n\n    function freeze(address _to, uint64 _until) internal {\n        require(_until > block.timestamp);\n        bytes32 key = toKey(_to, _until);\n        bytes32 parentKey = toKey(_to, uint64(0));\n        uint64 next = chains[parentKey];\n\n        if (next == 0) {\n            chains[parentKey] = _until;\n            return;\n        }\n\n        bytes32 nextKey = toKey(_to, next);\n        uint parent;\n\n        while (next != 0 && _until > next) {\n            parent = next;\n            parentKey = nextKey;\n\n            next = chains[nextKey];\n            nextKey = toKey(_to, next);\n        }\n\n        if (_until == next) {\n            return;\n        }\n\n        if (next != 0) {\n            chains[key] = next;\n        }\n\n        chains[parentKey] = _until;\n    }\n}\n",
  "sourcePath": "/var/www/lastwill/temp/3c747d54-6182-43e5-8270-37730aa0099f/contracts/FreezableToken.sol",
  "compiler": {
    "name": "solc",
    "version": "0.4.24+commit.e67f0147.Emscripten.clang"
  },
  "schemaVersion": "2.0.1",
  "updatedAt": "2019-01-13T19:26:08.310Z"
}