{
  "contractName": "MainToken",
  "abi": [
    {
      "constant": true,
      "inputs": [],
      "name": "CONTINUE_MINTING",
      "outputs": [
        {
          "name": "",
          "type": "bool"
        }
      ],
      "payable": false,
      "stateMutability": "view",
      "type": "function"
    },
    {
      "constant": true,
      "inputs": [
        {
          "name": "_addr",
          "type": "address"
        },
        {
          "name": "_index",
          "type": "uint256"
        }
      ],
      "name": "getFreezing",
      "outputs": [
        {
          "name": "_release",
          "type": "uint64"
        },
        {
          "name": "_balance",
          "type": "uint256"
        }
      ],
      "payable": false,
      "stateMutability": "view",
      "type": "function"
    },
    {
      "constant": true,
      "inputs": [],
      "name": "mintingFinished",
      "outputs": [
        {
          "name": "",
          "type": "bool"
        }
      ],
      "payable": false,
      "stateMutability": "view",
      "type": "function"
    },
    {
      "constant": false,
      "inputs": [
        {
          "name": "_spender",
          "type": "address"
        },
        {
          "name": "_value",
          "type": "uint256"
        }
      ],
      "name": "approve",
      "outputs": [
        {
          "name": "",
          "type": "bool"
        }
      ],
      "payable": false,
      "stateMutability": "nonpayable",
      "type": "function"
    },
    {
      "constant": false,
      "inputs": [
        {
          "name": "_to",
          "type": "address"
        },
        {
          "name": "_amount",
          "type": "uint256"
        },
        {
          "name": "_until",
          "type": "uint64"
        }
      ],
      "name": "mintAndFreeze",
      "outputs": [
        {
          "name": "",
          "type": "bool"
        }
      ],
      "payable": false,
      "stateMutability": "nonpayable",
      "type": "function"
    },
    {
      "constant": true,
      "inputs": [],
      "name": "initialized",
      "outputs": [
        {
          "name": "",
          "type": "bool"
        }
      ],
      "payable": false,
      "stateMutability": "view",
      "type": "function"
    },
    {
      "constant": true,
      "inputs": [
        {
          "name": "_owner",
          "type": "address"
        }
      ],
      "name": "actualBalanceOf",
      "outputs": [
        {
          "name": "balance",
          "type": "uint256"
        }
      ],
      "payable": false,
      "stateMutability": "view",
      "type": "function"
    },
    {
      "constant": true,
      "inputs": [],
      "name": "totalSupply",
      "outputs": [
        {
          "name": "",
          "type": "uint256"
        }
      ],
      "payable": false,
      "stateMutability": "view",
      "type": "function"
    },
    {
      "constant": true,
      "inputs": [],
      "name": "TOKEN_NAME",
      "outputs": [
        {
          "name": "",
          "type": "string"
        }
      ],
      "payable": false,
      "stateMutability": "view",
      "type": "function"
    },
    {
      "constant": true,
      "inputs": [],
      "name": "TOKEN_SYMBOL",
      "outputs": [
        {
          "name": "",
          "type": "string"
        }
      ],
      "payable": false,
      "stateMutability": "view",
      "type": "function"
    },
    {
      "constant": false,
      "inputs": [
        {
          "name": "_to",
          "type": "address"
        },
        {
          "name": "_amount",
          "type": "uint256"
        },
        {
          "name": "_until",
          "type": "uint64"
        }
      ],
      "name": "freezeTo",
      "outputs": [],
      "payable": false,
      "stateMutability": "nonpayable",
      "type": "function"
    },
    {
      "constant": false,
      "inputs": [],
      "name": "unpause",
      "outputs": [],
      "payable": false,
      "stateMutability": "nonpayable",
      "type": "function"
    },
    {
      "constant": false,
      "inputs": [
        {
          "name": "_to",
          "type": "address"
        },
        {
          "name": "_amount",
          "type": "uint256"
        }
      ],
      "name": "mint",
      "outputs": [
        {
          "name": "",
          "type": "bool"
        }
      ],
      "payable": false,
      "stateMutability": "nonpayable",
      "type": "function"
    },
    {
      "constant": false,
      "inputs": [
        {
          "name": "_value",
          "type": "uint256"
        }
      ],
      "name": "burn",
      "outputs": [],
      "payable": false,
      "stateMutability": "nonpayable",
      "type": "function"
    },
    {
      "constant": true,
      "inputs": [],
      "name": "TOKEN_DECIMAL_MULTIPLIER",
      "outputs": [
        {
          "name": "",
          "type": "uint256"
        }
      ],
      "payable": false,
      "stateMutability": "view",
      "type": "function"
    },
    {
      "constant": true,
      "inputs": [],
      "name": "TOKEN_DECIMALS",
      "outputs": [
        {
          "name": "",
          "type": "uint256"
        }
      ],
      "payable": false,
      "stateMutability": "view",
      "type": "function"
    },
    {
      "constant": false,
      "inputs": [],
      "name": "releaseAll",
      "outputs": [
        {
          "name": "tokens",
          "type": "uint256"
        }
      ],
      "payable": false,
      "stateMutability": "nonpayable",
      "type": "function"
    },
    {
      "constant": true,
      "inputs": [],
      "name": "paused",
      "outputs": [
        {
          "name": "",
          "type": "bool"
        }
      ],
      "payable": false,
      "stateMutability": "view",
      "type": "function"
    },
    {
      "constant": false,
      "inputs": [
        {
          "name": "_spender",
          "type": "address"
        },
        {
          "name": "_subtractedValue",
          "type": "uint256"
        }
      ],
      "name": "decreaseApproval",
      "outputs": [
        {
          "name": "",
          "type": "bool"
        }
      ],
      "payable": false,
      "stateMutability": "nonpayable",
      "type": "function"
    },
    {
      "constant": false,
      "inputs": [],
      "name": "releaseOnce",
      "outputs": [],
      "payable": false,
      "stateMutability": "nonpayable",
      "type": "function"
    },
    {
      "constant": true,
      "inputs": [
        {
          "name": "_owner",
          "type": "address"
        }
      ],
      "name": "balanceOf",
      "outputs": [
        {
          "name": "balance",
          "type": "uint256"
        }
      ],
      "payable": false,
      "stateMutability": "view",
      "type": "function"
    },
    {
      "constant": false,
      "inputs": [],
      "name": "renounceOwnership",
      "outputs": [],
      "payable": false,
      "stateMutability": "nonpayable",
      "type": "function"
    },
    {
      "constant": true,
      "inputs": [],
      "name": "TARGET_USER",
      "outputs": [
        {
          "name": "",
          "type": "address"
        }
      ],
      "payable": false,
      "stateMutability": "view",
      "type": "function"
    },
    {
      "constant": false,
      "inputs": [],
      "name": "finishMinting",
      "outputs": [
        {
          "name": "",
          "type": "bool"
        }
      ],
      "payable": false,
      "stateMutability": "nonpayable",
      "type": "function"
    },
    {
      "constant": false,
      "inputs": [],
      "name": "pause",
      "outputs": [],
      "payable": false,
      "stateMutability": "nonpayable",
      "type": "function"
    },
    {
      "constant": true,
      "inputs": [],
      "name": "owner",
      "outputs": [
        {
          "name": "",
          "type": "address"
        }
      ],
      "payable": false,
      "stateMutability": "view",
      "type": "function"
    },
    {
      "constant": true,
      "inputs": [],
      "name": "PAUSED",
      "outputs": [
        {
          "name": "",
          "type": "bool"
        }
      ],
      "payable": false,
      "stateMutability": "view",
      "type": "function"
    },
    {
      "constant": true,
      "inputs": [
        {
          "name": "_addr",
          "type": "address"
        }
      ],
      "name": "freezingCount",
      "outputs": [
        {
          "name": "count",
          "type": "uint256"
        }
      ],
      "payable": false,
      "stateMutability": "view",
      "type": "function"
    },
    {
      "constant": true,
      "inputs": [],
      "name": "TOKEN_DECIMALS_UINT8",
      "outputs": [
        {
          "name": "",
          "type": "uint8"
        }
      ],
      "payable": false,
      "stateMutability": "view",
      "type": "function"
    },
    {
      "constant": false,
      "inputs": [
        {
          "name": "_spender",
          "type": "address"
        },
        {
          "name": "_addedValue",
          "type": "uint256"
        }
      ],
      "name": "increaseApproval",
      "outputs": [
        {
          "name": "",
          "type": "bool"
        }
      ],
      "payable": false,
      "stateMutability": "nonpayable",
      "type": "function"
    },
    {
      "constant": true,
      "inputs": [
        {
          "name": "_owner",
          "type": "address"
        }
      ],
      "name": "freezingBalanceOf",
      "outputs": [
        {
          "name": "balance",
          "type": "uint256"
        }
      ],
      "payable": false,
      "stateMutability": "view",
      "type": "function"
    },
    {
      "constant": true,
      "inputs": [
        {
          "name": "_owner",
          "type": "address"
        },
        {
          "name": "_spender",
          "type": "address"
        }
      ],
      "name": "allowance",
      "outputs": [
        {
          "name": "",
          "type": "uint256"
        }
      ],
      "payable": false,
      "stateMutability": "view",
      "type": "function"
    },
    {
      "constant": false,
      "inputs": [
        {
          "name": "_newOwner",
          "type": "address"
        }
      ],
      "name": "transferOwnership",
      "outputs": [],
      "payable": false,
      "stateMutability": "nonpayable",
      "type": "function"
    },
    {
      "inputs": [],
      "payable": false,
      "stateMutability": "nonpayable",
      "type": "constructor"
    },
    {
      "anonymous": false,
      "inputs": [],
      "name": "Initialized",
      "type": "event"
    },
    {
      "anonymous": false,
      "inputs": [],
      "name": "Pause",
      "type": "event"
    },
    {
      "anonymous": false,
      "inputs": [],
      "name": "Unpause",
      "type": "event"
    },
    {
      "anonymous": false,
      "inputs": [
        {
          "indexed": true,
          "name": "burner",
          "type": "address"
        },
        {
          "indexed": false,
          "name": "value",
          "type": "uint256"
        }
      ],
      "name": "Burn",
      "type": "event"
    },
    {
      "anonymous": false,
      "inputs": [
        {
          "indexed": true,
          "name": "to",
          "type": "address"
        },
        {
          "indexed": false,
          "name": "amount",
          "type": "uint256"
        }
      ],
      "name": "Mint",
      "type": "event"
    },
    {
      "anonymous": false,
      "inputs": [],
      "name": "MintFinished",
      "type": "event"
    },
    {
      "anonymous": false,
      "inputs": [
        {
          "indexed": true,
          "name": "previousOwner",
          "type": "address"
        }
      ],
      "name": "OwnershipRenounced",
      "type": "event"
    },
    {
      "anonymous": false,
      "inputs": [
        {
          "indexed": true,
          "name": "previousOwner",
          "type": "address"
        },
        {
          "indexed": true,
          "name": "newOwner",
          "type": "address"
        }
      ],
      "name": "OwnershipTransferred",
      "type": "event"
    },
    {
      "anonymous": false,
      "inputs": [
        {
          "indexed": true,
          "name": "to",
          "type": "address"
        },
        {
          "indexed": false,
          "name": "release",
          "type": "uint64"
        },
        {
          "indexed": false,
          "name": "amount",
          "type": "uint256"
        }
      ],
      "name": "Freezed",
      "type": "event"
    },
    {
      "anonymous": false,
      "inputs": [
        {
          "indexed": true,
          "name": "owner",
          "type": "address"
        },
        {
          "indexed": false,
          "name": "amount",
          "type": "uint256"
        }
      ],
      "name": "Released",
      "type": "event"
    },
    {
      "anonymous": false,
      "inputs": [
        {
          "indexed": true,
          "name": "owner",
          "type": "address"
        },
        {
          "indexed": true,
          "name": "spender",
          "type": "address"
        },
        {
          "indexed": false,
          "name": "value",
          "type": "uint256"
        }
      ],
      "name": "Approval",
      "type": "event"
    },
    {
      "anonymous": false,
      "inputs": [
        {
          "indexed": true,
          "name": "from",
          "type": "address"
        },
        {
          "indexed": true,
          "name": "to",
          "type": "address"
        },
        {
          "indexed": false,
          "name": "value",
          "type": "uint256"
        }
      ],
      "name": "Transfer",
      "type": "event"
    },
    {
      "constant": true,
      "inputs": [],
      "name": "name",
      "outputs": [
        {
          "name": "_name",
          "type": "string"
        }
      ],
      "payable": false,
      "stateMutability": "pure",
      "type": "function"
    },
    {
      "constant": true,
      "inputs": [],
      "name": "symbol",
      "outputs": [
        {
          "name": "_symbol",
          "type": "string"
        }
      ],
      "payable": false,
      "stateMutability": "pure",
      "type": "function"
    },
    {
      "constant": true,
      "inputs": [],
      "name": "decimals",
      "outputs": [
        {
          "name": "_decimals",
          "type": "uint8"
        }
      ],
      "payable": false,
      "stateMutability": "pure",
      "type": "function"
    },
    {
      "constant": false,
      "inputs": [
        {
          "name": "_from",
          "type": "address"
        },
        {
          "name": "_to",
          "type": "address"
        },
        {
          "name": "_value",
          "type": "uint256"
        }
      ],
      "name": "transferFrom",
      "outputs": [
        {
          "name": "_success",
          "type": "bool"
        }
      ],
      "payable": false,
      "stateMutability": "nonpayable",
      "type": "function"
    },
    {
      "constant": false,
      "inputs": [
        {
          "name": "_to",
          "type": "address"
        },
        {
          "name": "_value",
          "type": "uint256"
        }
      ],
      "name": "transfer",
      "outputs": [
        {
          "name": "_success",
          "type": "bool"
        }
      ],
      "payable": false,
      "stateMutability": "nonpayable",
      "type": "function"
    }
  ],
  "bytecode": "0x60806040526006805460a060020a62ffffff02191690553480156200002357600080fd5b5060068054600160a060020a031916331790556200004964010000000062000077810204565b6200007173548afc866adce12a5e76e58d208195ba0b3de0846401000000006200021e810204565b620007c6565b62000081620007a7565b6200008b620007a7565b62000095620007a7565b600654600090760100000000000000000000000000000000000000000000900460ff1615620000c357600080fd5b6006805460b060020a60ff0219167601000000000000000000000000000000000000000000001790555050604080516020818101835273548afc866adce12a5e76e58d208195ba0b3de084825282518082018452620f42408152835191820190935260008082529194509192505b6001811015620001ef578181600181106200014857fe5b60200201516001604060020a031615156200019b57620001948482600181106200016e57fe5b60200201518483600181106200018057fe5b60200201516401000000006200024d810204565b50620001e6565b620001e4848260018110620001ac57fe5b6020020151848360018110620001be57fe5b6020020151848460018110620001d057fe5b60200201516401000000006200035c810204565b505b60010162000131565b6040517f5daa87a0e9463431830481fd4b6e3403442dfb9a12b9c07597e9f61d50b633c890600090a150505050565b600654600160a060020a031633146200023657600080fd5b6200024a816401000000006200052f810204565b50565b600654600090600160a060020a031633146200026857600080fd5b60065474010000000000000000000000000000000000000000900460ff16156200029157600080fd5b600154620002ae90836401000000006200147f620005a182021704565b600155600160a060020a038316600090815260208190526040902054620002e490836401000000006200147f620005a182021704565b600160a060020a03841660008181526020818152604091829020939093558051858152905191926000805160206200223683398151915292918290030190a2604080518381529051600160a060020a03851691600091600080516020620022168339815191529181900360200190a350600192915050565b6006546000908190600160a060020a031633146200037957600080fd5b60065474010000000000000000000000000000000000000000900460ff1615620003a257600080fd5b600154620003bf90856401000000006200147f620005a182021704565b600155620003e0856001604060020a038516640100000000620005b5810204565b6000818152600460205260409020549091506200040c90856401000000006200147f620005a182021704565b600082815260046020908152604080832093909355600160a060020a03881682526005905220546200044d90856401000000006200147f620005a182021704565b600160a060020a0386166000908152600560205260409020556200047b8584640100000000620005e9810204565b604080518581529051600160a060020a0387169160008051602062002236833981519152919081900360200190a2604080516001604060020a0385168152602081018690528151600160a060020a038816927f2ecd071e4d10ed2221b04636ed0724cce66a873aa98c1a31b4bb0e6846d3aab4928290030190a2604080518581529051600160a060020a038716913391600080516020620022168339815191529181900360200190a3506001949350505050565b600160a060020a03811615156200054557600080fd5b600654604051600160a060020a038084169216907f8be0079c531659141344cd1fd0a4f28419497f9722a3daafe3b4186f6b6457e090600090a360068054600160a060020a031916600160a060020a0392909216919091179055565b81810182811015620005af57fe5b92915050565b6801000000000000000091909102177f57495348000000000000000000000000000000000000000000000000000000001790565b600080808080426001604060020a038716116200060557600080fd5b62000623876001604060020a038816640100000000620005b5810204565b94506200063b876000640100000000620005b5810204565b6000818152600360205260409020549094506001604060020a031692508215156200068d57600084815260036020526040902080546001604060020a0319166001604060020a0388161790556200079e565b620006ab876001604060020a038516640100000000620005b5810204565b91505b6001604060020a03831615801590620006d85750826001604060020a0316866001604060020a0316115b156200071d57506000818152600360205260409020549092506001604060020a0390811691839116620007158784640100000000620005b5810204565b9150620006ae565b826001604060020a0316866001604060020a031614156200073e576200079e565b6001604060020a038316156200077657600085815260036020526040902080546001604060020a0319166001604060020a0385161790555b600084815260036020526040902080546001604060020a0319166001604060020a0388161790555b50505050505050565b6020604051908101604052806001906020820280388339509192915050565b611a4080620007d66000396000f3006080604052600436106101d65763ffffffff7c01000000000000000000000000000000000000000000000000000000006000350416623fd35a81146101db57806302d6f7301461020457806305d2035b1461024c57806306fdde0314610261578063095ea7b3146102eb5780630bb2cd6b1461030f578063158ef93e1461034057806317a950ac1461035557806318160ddd14610388578063188214001461039d57806323b872dd146103b25780632a905318146103dc578063313ce567146103f15780633be1e9521461041c5780633f4ba83a1461044f57806340c10f191461046457806342966c681461048857806356780085146104a05780635b7f415c146104b55780635be7fde8146104ca5780635c975abb146104df57806366188463146104f457806366a92cda1461051857806370a082311461052d578063715018a61461054e578063726a431a146105635780637d64bcb4146105945780638456cb59146105a95780638da5cb5b146105be57806395d89b41146105d3578063a9059cbb146105e8578063a9aad58c1461060c578063ca63b5b814610621578063cf3b196714610642578063d73dd62314610657578063d8aeedf51461067b578063dd62ed3e1461069c578063f2fde38b146106c3575b600080fd5b3480156101e757600080fd5b506101f06106e4565b604080519115158252519081900360200190f35b34801561021057600080fd5b50610228600160a060020a03600435166024356106e9565b6040805167ffffffffffffffff909316835260208301919091528051918290030190f35b34801561025857600080fd5b506101f0610776565b34801561026d57600080fd5b50610276610786565b6040805160208082528351818301528351919283929083019185019080838360005b838110156102b0578181015183820152602001610298565b50505050905090810190601f1680156102dd5780820380516001836020036101000a031916815260200191505b509250505060405180910390f35b3480156102f757600080fd5b506101f0600160a060020a03600435166024356107bd565b34801561031b57600080fd5b506101f0600160a060020a036004351660243567ffffffffffffffff60443516610823565b34801561034c57600080fd5b506101f06109c1565b34801561036157600080fd5b50610376600160a060020a03600435166109e4565b60408051918252519081900360200190f35b34801561039457600080fd5b506103766109f5565b3480156103a957600080fd5b506102766109fb565b3480156103be57600080fd5b506101f0600160a060020a0360043581169060243516604435610a32565b3480156103e857600080fd5b50610276610a5f565b3480156103fd57600080fd5b50610406610a96565b6040805160ff9092168252519081900360200190f35b34801561042857600080fd5b5061044d600160a060020a036004351660243567ffffffffffffffff60443516610a9b565b005b34801561045b57600080fd5b5061044d610c0f565b34801561047057600080fd5b506101f0600160a060020a0360043516602435610c88565b34801561049457600080fd5b5061044d600435610d80565b3480156104ac57600080fd5b50610376610d8d565b3480156104c157600080fd5b50610376610d92565b3480156104d657600080fd5b50610376610d97565b3480156104eb57600080fd5b506101f0610dfc565b34801561050057600080fd5b506101f0600160a060020a0360043516602435610e0c565b34801561052457600080fd5b5061044d610efc565b34801561053957600080fd5b50610376600160a060020a036004351661109f565b34801561055a57600080fd5b5061044d6110c8565b34801561056f57600080fd5b50610578611136565b60408051600160a060020a039092168252519081900360200190f35b3480156105a057600080fd5b506101f061114e565b3480156105b557600080fd5b5061044d6111d2565b3480156105ca57600080fd5b50610578611250565b3480156105df57600080fd5b5061027661125f565b3480156105f457600080fd5b506101f0600160a060020a0360043516602435611296565b34801561061857600080fd5b506101f06112c1565b34801561062d57600080fd5b50610376600160a060020a03600435166112c6565b34801561064e57600080fd5b50610406610d92565b34801561066357600080fd5b506101f0600160a060020a036004351660243561134c565b34801561068757600080fd5b50610376600160a060020a03600435166113e5565b3480156106a857600080fd5b50610376600160a060020a0360043581169060243516611400565b3480156106cf57600080fd5b5061044d600160a060020a036004351661142b565b600181565b600080805b836001018110156107425760036000610711878667ffffffffffffffff1661144b565b815260208101919091526040016000205467ffffffffffffffff16925082151561073a5761076e565b6001016106ee565b6004600061075a878667ffffffffffffffff1661144b565b815260208101919091526040016000205491505b509250929050565b60065460a060020a900460ff1681565b60408051808201909152600981527f4e61697261436f696e0000000000000000000000000000000000000000000000602082015290565b336000818152600260209081526040808320600160a060020a038716808552908352818420869055815186815291519394909390927f8c5be1e5ebec7d5bd14f71427d1e84f3dd0314c0f7b2291e5b200ac8c7c3b925928290030190a350600192915050565b6006546000908190600160a060020a0316331461083f57600080fd5b60065460a060020a900460ff161561085657600080fd5b600154610869908563ffffffff61147f16565b6001556108808567ffffffffffffffff851661144b565b6000818152600460205260409020549091506108a2908563ffffffff61147f16565b600082815260046020908152604080832093909355600160a060020a03881682526005905220546108d9908563ffffffff61147f16565b600160a060020a0386166000908152600560205260409020556108fc858461148c565b604080518581529051600160a060020a038716917f0f6798a560793a54c3bcfe86a93cde1e73087d944c0ea20544137d4121396885919081900360200190a26040805167ffffffffffffffff85168152602081018690528151600160a060020a038816927f2ecd071e4d10ed2221b04636ed0724cce66a873aa98c1a31b4bb0e6846d3aab4928290030190a2604080518581529051600160a060020a0387169133916000805160206119f58339815191529181900360200190a3506001949350505050565b600654760100000000000000000000000000000000000000000000900460ff1681565b60006109ef82611626565b92915050565b60015490565b60408051808201909152600981527f4e61697261436f696e0000000000000000000000000000000000000000000000602082015281565b60065460009060a860020a900460ff1615610a4c57600080fd5b610a57848484611641565b949350505050565b60408051808201909152600481527f4e474e4300000000000000000000000000000000000000000000000000000000602082015281565b600290565b6000600160a060020a0384161515610ab257600080fd5b33600090815260208190526040902054831115610ace57600080fd5b33600090815260208190526040902054610aee908463ffffffff6117a616565b33600090815260208190526040902055610b128467ffffffffffffffff841661144b565b600081815260046020526040902054909150610b34908463ffffffff61147f16565b600082815260046020908152604080832093909355600160a060020a0387168252600590522054610b6b908463ffffffff61147f16565b600160a060020a038516600090815260056020526040902055610b8e848361148c565b604080518481529051600160a060020a0386169133916000805160206119f58339815191529181900360200190a36040805167ffffffffffffffff84168152602081018590528151600160a060020a038716927f2ecd071e4d10ed2221b04636ed0724cce66a873aa98c1a31b4bb0e6846d3aab4928290030190a250505050565b600654600160a060020a03163314610c2657600080fd5b60065460a860020a900460ff161515610c3e57600080fd5b6006805475ff000000000000000000000000000000000000000000191690556040517f7805862f689e2f13df9f062ff482ad3ad112aca9e0847911ed832e158c525b3390600090a1565b600654600090600160a060020a03163314610ca257600080fd5b60065460a060020a900460ff1615610cb957600080fd5b600154610ccc908363ffffffff61147f16565b600155600160a060020a038316600090815260208190526040902054610cf8908363ffffffff61147f16565b600160a060020a03841660008181526020818152604091829020939093558051858152905191927f0f6798a560793a54c3bcfe86a93cde1e73087d944c0ea20544137d412139688592918290030190a2604080518381529051600160a060020a038516916000916000805160206119f58339815191529181900360200190a350600192915050565b610d8a33826117b8565b50565b606481565b600281565b6000806000610da73360006106e9565b67ffffffffffffffff909116925090505b8115801590610dc657508142115b15610df757610dd3610efc565b91820191610de23360006106e9565b67ffffffffffffffff90911692509050610db8565b505090565b60065460a860020a900460ff1681565b336000908152600260209081526040808320600160a060020a038616845290915281205480831115610e6157336000908152600260209081526040808320600160a060020a0388168452909152812055610e96565b610e71818463ffffffff6117a616565b336000908152600260209081526040808320600160a060020a03891684529091529020555b336000818152600260209081526040808320600160a060020a0389168085529083529281902054815190815290519293927f8c5be1e5ebec7d5bd14f71427d1e84f3dd0314c0f7b2291e5b200ac8c7c3b925929181900390910190a35060019392505050565b6000806000806000610f0f33600061144b565b60008181526003602052604090205490955067ffffffffffffffff169350831515610f3957600080fd5b8367ffffffffffffffff164267ffffffffffffffff16111515610f5b57600080fd5b610f6f338567ffffffffffffffff1661144b565b600081815260036020908152604080832054600483528184208054908590553385529284905292205492955067ffffffffffffffff90911693509150610fbb908263ffffffff61147f16565b3360009081526020818152604080832093909355600590522054610fe5908263ffffffff6117a616565b3360009081526005602052604090205567ffffffffffffffff82161515611028576000858152600360205260409020805467ffffffffffffffff19169055611062565b600085815260036020526040808220805467ffffffffffffffff861667ffffffffffffffff19918216179091558583529120805490911690555b60408051828152905133917fb21fb52d5749b80f3182f8c6992236b5e5576681880914484d7f4c9b062e619e919081900360200190a25050505050565b600160a060020a0381166000908152600560205260408120546110c183611626565b0192915050565b600654600160a060020a031633146110df57600080fd5b600654604051600160a060020a03909116907ff8df31144d9c2f0f6b59d69b8b98abd5459d07f2742c4df920b25aae33c6482090600090a26006805473ffffffffffffffffffffffffffffffffffffffff19169055565b73548afc866adce12a5e76e58d208195ba0b3de08481565b600654600090600160a060020a0316331461116857600080fd5b60065460a060020a900460ff161561117f57600080fd5b6006805474ff0000000000000000000000000000000000000000191660a060020a1790556040517fae5184fba832cb2b1f702aca6117b8d265eaf03ad33eb133f19dde0f5920fa0890600090a150600190565b600654600160a060020a031633146111e957600080fd5b60065460a860020a900460ff161561120057600080fd5b6006805475ff000000000000000000000000000000000000000000191660a860020a1790556040517f6985a02210a168e66602d3235cb6db0e70f92b3ba4d376a33c0f3d9434bff62590600090a1565b600654600160a060020a031681565b60408051808201909152600481527f4e474e4300000000000000000000000000000000000000000000000000000000602082015290565b60065460009060a860020a900460ff16156112b057600080fd5b6112ba83836118a7565b9392505050565b600081565b600080600360006112d885600061144b565b815260208101919091526040016000205467ffffffffffffffff1690505b67ffffffffffffffff81161561134657600190910190600360006113248567ffffffffffffffff851661144b565b815260208101919091526040016000205467ffffffffffffffff1690506112f6565b50919050565b336000908152600260209081526040808320600160a060020a0386168452909152812054611380908363ffffffff61147f16565b336000818152600260209081526040808320600160a060020a0389168085529083529281902085905580519485525191937f8c5be1e5ebec7d5bd14f71427d1e84f3dd0314c0f7b2291e5b200ac8c7c3b925929081900390910190a350600192915050565b600160a060020a031660009081526005602052604090205490565b600160a060020a03918216600090815260026020908152604080832093909416825291909152205490565b600654600160a060020a0316331461144257600080fd5b610d8a81611976565b6801000000000000000091909102177f57495348000000000000000000000000000000000000000000000000000000001790565b818101828110156109ef57fe5b6000808080804267ffffffffffffffff8716116114a857600080fd5b6114bc878767ffffffffffffffff1661144b565b94506114c987600061144b565b60008181526003602052604090205490945067ffffffffffffffff16925082151561151c576000848152600360205260409020805467ffffffffffffffff191667ffffffffffffffff881617905561161d565b611530878467ffffffffffffffff1661144b565b91505b67ffffffffffffffff83161580159061155f57508267ffffffffffffffff168667ffffffffffffffff16115b15611598575060008181526003602052604090205490925067ffffffffffffffff90811691839116611591878461144b565b9150611533565b8267ffffffffffffffff168667ffffffffffffffff1614156115b95761161d565b67ffffffffffffffff8316156115f3576000858152600360205260409020805467ffffffffffffffff191667ffffffffffffffff85161790555b6000848152600360205260409020805467ffffffffffffffff191667ffffffffffffffff88161790555b50505050505050565b600160a060020a031660009081526020819052604090205490565b6000600160a060020a038316151561165857600080fd5b600160a060020a03841660009081526020819052604090205482111561167d57600080fd5b600160a060020a03841660009081526002602090815260408083203384529091529020548211156116ad57600080fd5b600160a060020a0384166000908152602081905260409020546116d6908363ffffffff6117a616565b600160a060020a03808616600090815260208190526040808220939093559085168152205461170b908363ffffffff61147f16565b600160a060020a0380851660009081526020818152604080832094909455918716815260028252828120338252909152205461174d908363ffffffff6117a616565b600160a060020a03808616600081815260026020908152604080832033845282529182902094909455805186815290519287169391926000805160206119f5833981519152929181900390910190a35060019392505050565b6000828211156117b257fe5b50900390565b600160a060020a0382166000908152602081905260409020548111156117dd57600080fd5b600160a060020a038216600090815260208190526040902054611806908263ffffffff6117a616565b600160a060020a038316600090815260208190526040902055600154611832908263ffffffff6117a616565b600155604080518281529051600160a060020a038416917fcc16f5dbb4873280815c1ee09dbd06736cffcc184412cf7a71a0fdb75d397ca5919081900360200190a2604080518281529051600091600160a060020a038516916000805160206119f58339815191529181900360200190a35050565b6000600160a060020a03831615156118be57600080fd5b336000908152602081905260409020548211156118da57600080fd5b336000908152602081905260409020546118fa908363ffffffff6117a616565b3360009081526020819052604080822092909255600160a060020a0385168152205461192c908363ffffffff61147f16565b600160a060020a038416600081815260208181526040918290209390935580518581529051919233926000805160206119f58339815191529281900390910190a350600192915050565b600160a060020a038116151561198b57600080fd5b600654604051600160a060020a038084169216907f8be0079c531659141344cd1fd0a4f28419497f9722a3daafe3b4186f6b6457e090600090a36006805473ffffffffffffffffffffffffffffffffffffffff1916600160a060020a03929092169190911790555600ddf252ad1be2c89b69c2b068fc378daa952ba7f163c4a11628f55a4df523b3efa165627a7a723058204c7ec809f066eefa4d60bdced72414dfd44c8b87ab947792c42a27b5a8042dc20029ddf252ad1be2c89b69c2b068fc378daa952ba7f163c4a11628f55a4df523b3ef0f6798a560793a54c3bcfe86a93cde1e73087d944c0ea20544137d4121396885",
  "source": "pragma solidity ^0.4.23;\n\nimport \"openzeppelin-solidity/contracts/token/ERC20/MintableToken.sol\";\nimport \"openzeppelin-solidity/contracts/token/ERC20/BurnableToken.sol\";\nimport \"openzeppelin-solidity/contracts/lifecycle/Pausable.sol\";\n\nimport \"./FreezableMintableToken.sol\";\nimport \"./Consts.sol\";\n\n\ncontract MainToken is Consts, FreezableMintableToken, BurnableToken, Pausable\n    \n{\n    \n    event Initialized();\n    bool public initialized = false;\n\n    constructor() public {\n        init();\n        transferOwnership(TARGET_USER);\n    }\n    \n\n    function name() public pure returns (string _name) {\n        return TOKEN_NAME;\n    }\n\n    function symbol() public pure returns (string _symbol) {\n        return TOKEN_SYMBOL;\n    }\n\n    function decimals() public pure returns (uint8 _decimals) {\n        return TOKEN_DECIMALS_UINT8;\n    }\n\n    function transferFrom(address _from, address _to, uint256 _value) public returns (bool _success) {\n        require(!paused);\n        return super.transferFrom(_from, _to, _value);\n    }\n\n    function transfer(address _to, uint256 _value) public returns (bool _success) {\n        require(!paused);\n        return super.transfer(_to, _value);\n    }\n\n    \n    function init() private {\n        require(!initialized);\n        initialized = true;\n\n        if (PAUSED) {\n            pause();\n        }\n\n        \n        address[1] memory addresses = [address(0x548afc866adce12a5e76e58d208195ba0b3de084)];\n        uint[1] memory amounts = [uint(1000000)];\n        uint64[1] memory freezes = [uint64(0)];\n\n        for (uint i = 0; i < addresses.length; i++) {\n            if (freezes[i] == 0) {\n                mint(addresses[i], amounts[i]);\n            } else {\n                mintAndFreeze(addresses[i], amounts[i], freezes[i]);\n            }\n        }\n        \n\n        if (!CONTINUE_MINTING) {\n            finishMinting();\n        }\n\n        emit Initialized();\n    }\n    \n}\n\n\n",
  "sourcePath": "/var/www/lastwill/temp/3c747d54-6182-43e5-8270-37730aa0099f/contracts/MainToken.sol",
  "compiler": {
    "name": "solc",
    "version": "0.4.24+commit.e67f0147.Emscripten.clang"
  },
  "schemaVersion": "2.0.1",
  "updatedAt": "2019-01-13T19:26:08.313Z"
}